:400000000040002011000000950800009508000080B500AF00F042FC80B584B000AF021CFB1D1A70204A3B1C0B3312781A701F4A3B1C0A3312781A700423013BFB6018E051
:400040001B4B1868391C0B31FA68131C5B009B18C3185B780B70164B1868391C0A31FA68131C5B009B18C3189B780B70FB68013BFB60FB68002B0ADB0D4B1968FA68131CF1
:400080005B009B185B5CFA1D12789A42D8D9094B3A1C0B3212781A60074B3A1C0A3212781A60BD4604B080BDCCF1FF0FCDF1FF0FE00000201CFF0B4020FF0B4080B500AF3B
:4000C000244B12221A600C20FFF7A6FF224B0C221A60052001F0D0FF204B214A1278D2B21A60052002F060FA02F070F9FA235B00181C02F035FA012002F078F9194B1A4ADF
:400100001A601A4B8022D2051A60194B194A1A60194B194A126808218A431A60FA23DB00181C02F00DF9154B181C02F03DFA144BE022D2001A60134B134A1A60134BA62212
:4001400012061A60124B40221A60024B00221A60BD4680BD300010402CFF0B4028FF0B40D9F1FF0F04010B40060000800C020B407C002E406A2D00006CF02E40DC050000F0
:40018000000301400000014040FF008008010B401801014080B582B000AF72B6414B00221A60FB1D00221A7023E0FB1D1A78131C5B009B185B003C4A9B183B603B681A78D5
:4001C000597809020A43997809040A43DB781B0613431A1C3B6819795B791B020B439BB2101C191C00F0DEFBFB1D1A78FB1D01321A70FB1D1B78012BD7D92C4A2C4B101C61
:40020000191C00F0DFFB2B4BEE2212061A602A4BD82212041A60294B80221A60284B8022D2031A60274B802212021A60264B02221A60264BC32252001A60254B02221A60D3
:40024000244B992212041A60234B992212041A60224B802212061A60214B992212041A60204B204A1278D2B202210A43D2B21A701D4B1D4A1278D2B23C218A43D2B2142192
:400280000A43D2B21A70174B164A1278D2B216210A43D2B21A70FFF711FF00F0D3FBBD4602B080BD6CF02E40441E0100501E0100541E0100000002400800044000020440E8
:4002C000080204400C02044000030440080304401803044000500F4020500F4024500F4030500F4000700F4001700F4010B5064C2378002B07D1054B002B02D0044800E0CC
:4003000000BF0123237010BDF003002000000000A01D010008B5084B002B03D00748084900E000BF07480368002B03D0064B002B00D0984708BDC04600000000A01D0100F0
:40034000F4030020C80000200000000090B583B000AFFB1D03221A70BB1D06221A7062B600F09EF902F068FB2A4B1B78022B18D102F062FB284B1A680123134011D0264BE7
:400380001B680122191C91430A1C234B1A6000F0A9F900F025F9031C3B603B68181C00F0BBF81C4B1B78012B29D000F089F9FC1D032002F039FB031C237072B6BC1D03F013
:4003C000ECFD031C2370FB1D1B78032B0AD1BB1D1B78042B03D0BB1D1B78062B0ED102F011F90BE0BB1D1B78022B07D0032001F0B7FE02F0EDF80C2001F0B2FE62B6064B9A
:400400001A680823134004D001F0D8FD02F030F9A8E7A7E73C2500201404002080B582B000AF786039607B68022B0ED002D8012B05D021E0282B08D0412B0DD01CE000F080
:4004400011FA002000F034FF16E00D4B1B6808221A430B4B1A600FE0FA239B00181C00F0BDF9084A3B68111C1A1C0223081C111C1A1C02F0C8FAC046BD4602B080BDC046CF
:40048000140400202025002080B584B000AF786039607B687022FF3293420CD07222FF3293420CD0B7225200934200D01CE0104B01221A7018E00E4B00221A7014E03B68E1
:4004C000FB60FB685B681B6801331B781A1C094B1A60084B1B681A02FB685B681B681B781A43044B1A60C046BD4604B080BDC0460C040020CC00002080B500AF044B181C56
:4005000000F08EFE034B181C01F0ECF9BD4680BD1D0400008904000090B585B000AF7860214B1B78002B3BD0204B1A680223134036D01E4B1B680222191C91430A1C1B4BB3
:400540001A603B1C0833002006211A1C01F0D6F9031C002B24D17B68DAB23B1C08335A707B689BB21B0A9BB2DAB23B1C08339A707B681B0CDAB23B1C0833DA707B681B0CE2
:400580009BB21B0A9BB2DAB23B1C08331A71084B3C1C0834186800210622231C01F0C8FBBD4605B090BDC0460C040020140400202025002080B500AF00F0F4FC00F03AFC6E
:4005C000022000F053FC022000F050FC00F040FC002000F06FFC031C9BB2181CBD4680BD80B584B000AF0023FB603B1C0A3300221A803B1C083300221A80BB1D00221A80ED
:40060000254B1A68022313403FD000F0D3FCFFF7D1FF031C1A1C3B1C0A331A80FFF7CAFF031C1A1C3B1C08331A80FFF7C3FF031C1A1CBB1D1A803B1C0A331A88BB1D1B88C9
:40064000D31A9BB29AB23B1C08331988BB1D1B88CB1A9BB29BB212B21BB2101C191C00F0B1FC031CFB60FB68181C00F0F5FC031C1A1C0A4B1A60094B1B68181C642102F0A0
:400680002BF9031C1A1C054B1A60044B1B68181CBD4604B080BDC046140400201004002080B500AF01F072FC012001F025FC002001F046FCFFF720FF00F0B0FABD4680BDD3
:4006C00080B500AF002001F017FC002001F038FC034B1B68002B01DA00F00EFCBD4680BD00003A4080B500AF012001F005FC002001F026FC00F02CFCBD4680BD80B582B039
:4007000000AF064B1B68C022120213437B60034B7A681A60BD4602B080BDC04600010B4080B582B000AF0A4B1A680A4B13407B60074B7A688021C9010A431A60044B7A681A
:40074000802109020A431A60BD4602B080BDC04600010B40FF3FFFFF80B500AFFFF7E0FF184B184A1268120C1104164A126890B2154A126892B2821892B28A181A60134BCA
:40078000124A126804210A431A60FFF7B7FF104B1B685A1E0E4B1A600D4B1B68002B09D10C4B1A680A4B1A600B4B1B6802221A43094B1A60084B1B6801221A43064B1A60D1
:4007C000BD4680BD08020B40D400002010020B40D8000020CC0000201404002080B582B000AF7860194B0820191C01F01FFEFFF797FF174B7A681A60154B1B685A01154B52
:400800001A60154B144A1268120C1104114A126892B28A181A60114B104A126801210A431A60082001F07CFE0D4B0D4A126801210A431A60C0460A4B1A6802231340FAD0C1
:40084000FFF75CFFBD4602B080BDC04659070000D0000020D400002008020B400C020B4010020B4080B500AFFFF75AFF074B074A126801218A431A60054B054A12680421E9
:400880000A431A60FFF73AFFBD4680BD0C020B4010020B4080B500AFFEE7C04680B586B000AF224B7B61224B3B61204B7B6135E03B691B68FB603B695B68BB603B699B680A
:4008C0003B6000237B600CE0FB681A68BB681A60BB680433BB60FB680433FB607B6804337B607A683B689A42EED13B69DB683B6000237B6008E0BB6800221A60BB680433F1
:40090000BB607B6804337B607A683B689A42F2D13B6910333B617B69013B7B617B69002BC6D102F03BF8FFF711FDFEE701000000F024010080B582B000AF154B144A1268EC
:4009400001218A431A6000237B600FE07B68032B04D8104B7A689200D35800E00E4B0F4A796889008B507B6801337B607B682F2BECD9FFF70FFC0A4B00221A60044B044AE0
:40098000126801210A431A60BD4602B080BDC04600001040000000009508000000000020C000002080B582B000AF786039607A683B68101C00211A1C02F02EF8BD4602B093
:4009C00080BDC04680B586B000AF7860396000233B6100237B612EE07B699B007A68D3181B68BB603B1C0F33BA681A70BB68FF229343BB6017E03B695B003A68D3181B78E3
:400A00001A1CBB68D3183A69520039688A1852781A703B6901333B613B1C0F331A783B1C0F33013A1A703B1C0F331B78002BE2D17B6901337B617B69002BCDD0BD4606B086
:400A400080BDC04680B500AF064B03221A60064B03221A60054B00221A60012000F008F8BD4680BD3000304030003140000E3F4080B584B000AF021CFB1D1A700B4B1B68B3
:400A8000FB60FB1D1B78002B05D0FB68802212061343FB6003E0FB685B005B08FB60034BFA681A60BD4604B080BDC04680033A4080B500AF084BFF221A70084B8022920079
:400AC0001A60064B8022D2001A60044B8022D2001A60BD4680BDC046DC00002004033A4080B500AF1E4B1B78DBB20133DAB21C4B1A701B4B1B785BB2072B10D89A00194B01
:400B0000D3181B689F46164B04221A70144B05221A70134B06221A70114B07221A70104B00221A70104B8022D2001A600F4B802292001A6011E00C4B802292001A600B4B7E
:400B40008022D2001A6008E0074B8022D2001A60064B8022D2001A60C046BD4680BDC046DC000020001E010004033A4000033A4080B500AF064BFF221A70064B01221A60ED
:400B8000044B02221A60034B04221A60BD4680BDDD00002004033A4080B500AF1B4B1B78DBB20133DAB2194B1A70184B1B785BB2072B10D89A00164BD3181B689F46134BBB
:400BC00004221A70114B05221A70104B06221A700E4B07221A700D4B00221A700D4B04221A600D4B01221A600DE00A4B01221A60094B02221A6006E0064B02221A60064B37
:400C000004221A60C046BD4680BDC046DD000020201E010004033A4000033A4080B500AF064B1B78002B04D100F00AF8034B01221A7000F0D7F8BD4680BDC0461804002098
:400C400090B585B000AF0F20032101F015FC4E4B0F20191C01F0EAFB4C4B01221A604C4B4C4A1A604C4B4D4A1A604D4B4D4A1A604D4B00221A604D4B4D4A1A604D4B4C4AEC
:400C80001A604D4B00221A604C4B00221A604C4B01221A604B4B1B687B607A684A4B13407B607B688022920513437B607B68012293437B60434B7A681A600023FB605CE0DE
:400CC000A023DA00DC239B0113407B60FB689B003E4A9B187A681A60A023DA00012313400AD0354B344A1168FA680120041C9440221C92B20A431A60A023DA0002231340BF
:400D00000AD02E4B2D4A1168FA680120041C9440221C92B20A431A60A023DA0080239B00134003D08023DB00BB6002E080235B01BB60A023DA0080235B00134005D1244BE7
:400D4000FA6852000021D15204E0214BFA6852000021D152BB681F4A53431F4A9B18181C1E4901F0B9FD031C9BB219B21C4BFA689200D150FB680133FB60FB68002B9FD011
:400D8000BD4605B090BDC046890F000020003A4000003A407002005304003A40BD00008018003A400000FF071C003A4010003A400400040014003A4028023A4038023A4056
:400DC00018023A4030003A40FFFFFFDF80003A402825002010270000E40C0000C81900002425002080B500AF0A4B1B68002B0EDBC046094B1B68002BFBDB064B054A126839
:400E0000802109060A431A600A2001F0CDFBBD4680BDC04600003A4008023A4080B500AF034B034A1268520052081A60BD4680BD00003A4080B500AF044B044A126880219F
:400E400049020A431A60BD4680BDC04604003A4080B500AF034B034A1168034A0A401A60BD4680BD04003A40FFFFFEFF80B584B000AF78600023FB607A680323134011D030
:400E80000B4B1A6801231340FB60FB68002B03D17A6802231340F3D1FB68002B02D0044B01221A60FB68181CBD4604B080BDC04610023A4080B584B000AF78607B68002BA1
:400EC00002D0002001F042FB7B68002B08D17B689B00084A9B181B681B041B0CFB6001E00023FB60FB689BB21BB2181CBD4604B080BDC04680013A4080B500AF104B104AA6
:400F00001268802109060A431A600E4B1B68002B11DA0D4B1A6880235B02134003D00B4B03221A7002E0094B01221A70FFF790FFFFF774FF02E0054B00221A70BD4680BDDA
:400F400030003A4000003A4004003A401C04002080B500AF0A4B0A4A1268520052081A60084B1B78002B09D0FFF73CFF054B1B781A1C0223134001D0FFF75CFFBD4680BD54
:400F800030003A401C04002080B582B000AF044B1B687B60024B7A681A60BD4602B080BD10023A4080B500AFFFF7F6FDFFF798FDBD4680BD80B500AFFFF7DAFDFFF778FDA9
:400FC000BD4680BD80B584B000AF0A1CBB1D011C19803B1D1A803B1D00229B5E1D4A5343BB60BB1D00229B5E002B17DABB1D1B885B429AB23B1C0E331A803B1C0E331B8888
:401000005B089AB23B1C0E331A803B1C0E331B885B429AB23B1C0E331A8006E0BB1D1B885B089AB23B1C0E331A803B1C0E3300229B5EBA68D318BB60BB1D00229B5EB86849
:40104000191C01F049FC031CBB60BB68181CBD4604B080BD1027000080B584B000AF78603B1C0E3300221A803B1C0C3364221A8048E03B1C0E331A883B1C0C331B88D318C9
:401080005A103B1C0A331A803B1C0A331B88002B0DD03B1C0A331B88642B08D03B1C0A331A884D4B9200D2587B689A4206D13B1C0C333A1C0A3212881A802BE03B1C0A33A0
:4010C0001A88454B9200D2587B689A420DD93B1C0E333A1C0A32128801321A803B1C0C333A1C0C3212881A800CE03B1C0C333A1C0A321288013A1A803B1C0E333A1C0E32BD
:4011000012881A803A1C0E323B1C0C3312881B889A42AED33B1C0C331A882F4B9200D2587B689A421FD93B1C0C331B88632B1AD83B1C0C331A88284B9200D2587B68D21AA1
:401140003B1C0C331B88591C234B8900CB587968CB1A9A4207D93B1C0C331A883B1C0C3301321A8027E03B1C0C331A881A4B9200D2587B689A421ED23B1C0C331B88002B17
:4011800019D03B1C0C331B885A1E134B9200D2587B68D21A3B1C0C3319880F4B8900CB587968CB1A9A4206D23B1C0C331A883B1C0C33013A1A803B1C0C331B88322253432F
:4011C0009AB23B1C08331A803B1C08331B881BB2181CBD4604B080BD581E010080B500AF074B00221A70074B00221A70064B00221A7000F00DF8054B00221A70BD4680BDC8
:401200004425002042250020432500202C25002080B500AF00F058FB00F05AFBBD4680BD90B585B000AF78603B1C0E3301221A80194B1B78002B04D1FFF7D0FF164B012263
:401240001A707B68002B1FD0144B7A681A603C1C0E34134A134B101C191C172201F002FC031C23803B1C0E331B88002B0CD10E4B01221A703C1C0E340C4B181C2B2115229B
:401280000CF0C0F9031C23803B1C0E331B88181CBD4605B090BDC0462004002030250020B5150000480400203C250020A820010090B585B000AF021CFB1D1A70294B1B7814
:4012C000042B42D1284B1B78DBB21A1C042313403BD1FB1D1B78002B0BD1244B1E221A82224B5B6820221A80204B5B6830225A8010E0FB1D1B78012B0CD11C4B96221A829B
:401300001A4B5B68C822D2001A80184B5B688022D2015A80164BFA1D12781A703C1C0E34124B181C0AF0D0FB031C23803B1C0E331B88002B08D10C4B1B78DBB2042213434A
:40134000DAB2094B1A7005E004E03B1C0E33832252001A803B1C0E331B88181CBD4605B090BDC0463C25002044250020200100204325002080B582B000AF78607B681B7860
:401380001A1C7B6801331B781B029BB213439BB2181CBD4602B080BD90B585B000AF78603B1C0F3300221A707B689A890B239A4237D17B681A1D7B683C1C0F34101C0021D7
:4013C0001A1C40230CF052F9031C23703B1C0F331B78002B1DD17B685B68181CFFF7CAFF031C1A1C022313409BB2002B08D0104B1B68822251007A68081C111C984708E093
:401400000B4B1B680622111CFF317A68081C111C9847084B1B78DBB201229343DAB2054B1A703B1C0F331B78181CBD4605B090BD302500204425002090B585B000AF786006
:401440003C1C0F347B68181CFFF7A6FF031C23703B1C0F331B78002B0ED11C4B1B78DBB21A1C0123134007D03C1C0F347B68181C00F0DEFA031C2370144B1B78DBB21A1C4B
:40148000012313401FD13B1C0F331B78002B16D03B1C083312229A707B689A893B1C08331A803B1C08333A1C0F321278DA707B683A1C08321868111C0BF01EFC03E07B688E
:4014C00018680BF079FCBD4605B090BD4425002080B582B000AF78607B68002B0AD0074B1B78DBB21A1C0123134003D07B68181C00F096FCBD4602B080BDC046442500208C
:4015000080B500AF034B00225A70024B00221A70BD4680BD4025002080B582B000AF7860BD4602B080BDC04680B500AFBD4680BD80B584B000AF78603B1C0E3300221A7091
:401540007B689B79002B1CD13B1C0F3300221A7012E03B1C0F331B787A68D35C002B04D03B1C0E3301221A700BE03B1C0F331A783B1C0F3301321A703B1C0F331B78052BDC
:40158000E7D93B1C0E331B78181CBD4604B080BD80B582B000AF021CBB1D1A80BD4602B080BDC04680B582B000AF7860BD4602B080BDC04680B584B000AF021C3960FB1DAD
:4015C0001A70B24B1B78DBB201221343DAB2AF4B1A70FB1D1B782A2B00D190E016DC212B00D175E008DC022B00D167E0052B00D169E0012B27D02FE1272B00D184E0282B96
:4016000000D189E0262B00D18AE025E14C2B00D10FE109DC422B00D1EAE0432B00D1EAE0412B00D1C9E017E1542B00D106E103DC4E2B00D10FE10FE1712B00D1B7E0FA2B69
:4016400000D100E108E13B1C0C3308221A703B1C0C3300225A703B1C0C33181C02F0CCFC3B1C0C3301225A703B1C0C33181C02F0C3FC874B1B68181CFFF75AFF031C002B5F
:4016800005D0834B1B68181C01F0DAF90FE0814B1A78814B1A70814B1A787F4B5A70804B1A787D4B9A707C4B181C01F0C9F900200AF0CCF87B4B04221A70CDE03B68181CC2
:4016C000FFF72AFFC8E03B681A78774B1A70C3E06E4B1B78DBB21A1C202313400ED1734B1B78102B02D1714B0522DA70704B1A786E4B101C191C0AF0B1F9ADE0ACE03B6828
:40170000181CFFF74FFFA7E03B68181CFFF74AFF644B02221A709FE0624B04221A709BE0604B1B78022B41D0584B1B78DBB21A1C012313403AD0554B1B78DBB21A1C0423CD
:4017400013400BD0574B03221A70504B1B78DBB204229343DAB24D4B1A7027E04B4B1B78DBB21A1C082313400BD04E4B04221A70464B1B78DBB208229343DAB2434B1A709B
:4017800014E0484B1B78032B10D1464B04221A70484B1B78002B09D10120FFF789FD031C002B03D13F4B03221A7055E054E03B681B88181CFFF7ECFE4EE03D4A3B68111C58
:4017C0001A1C0223081C111C1A1C01F01CF9384B1B78DA00384BD318384A111C1A1C0823081C111C1A1C01F00EF9FFF79DFE33E0FFF786FE30E03B685B88162B05D83B1CEB
:401800000E333A6852881A8003E03B1C0E3317221A803B683A1C0E321288198800230904090C1B0C1B040B43181C111C0BF070FA12E03B68181CFFF7FFFD0DE03B68181C71
:40184000FFF746FE08E01E4B1B7801221343DAB21B4B1A7000E0C0460C4B1B78DBB21A1C112313400FD0094B1B78DBB201229343DAB2064B1A70134B1B68FA1D11783A6865
:40188000081C111C9847BD4604B080BD44250020EC0000207CF1FF0FE40000207DF1FF0F7BF1FF0F3C25002042250020AC01002040250020432500208020010034250020FE
:4018C0002C2500203025002080B500AFBD4680BD80B500AF024B00221A80BD4680BDC046E410002080B582B000AF7860024B7A681A60BD4602B080BDE010002080B586B093
:4019000000AF3A60FB1D021C1A70BB1D0A1C1A703B1C163300221A80FB1D1B78032B04D93B1C163301221A8023E0FB1D1A781449131C5B009B185B00CB185A883B1C0833AE
:401940001A81BB1D1B789AB23B1C08339A803B1C08333A681A603B1C0833181C002100220BF068FE031C002B03D03B1C163301221A803B1C16331B88181CBD4606B080BD6A
:401980008024010080B586B000AF3B60FB1D1870BB1D19707B1D1A703B1C163300221A80FB1D1B78032B03D8BB1D1B78012B04D93B1C163301221A8030E0FB1D1A78BB1D37
:4019C00018781A49131C5B009B181B185B00CB189A883B1C08331A813B1C08331B89002B18D07B1D1B789AB23B1C08339A803B1C08333A681A603B1C0833181C00210022D4
:401A00000BF018FE031C002B08D03B1C163301221A8003E03B1C163301221A803B1C16331B88181CBD4606B080BDC0468024010090B589B000AF78603B1C1E3300221A7065
:401A40003B1C1D3300221A70B44B1B68002B00D15DE13B1C1F3300221A704DE17B6899893B1C1F331A78AE48131C5B009B185B00C3189B8899420ED07B6899893B1C1F33A1
:401A80001A78A748131C5B009B185B00C3185B88994200D029E13B1C0C337A6812881A803B1C0C333A1C1F3212789A707B681A1D3B1C0C335A607B6899893B1C1F331A7873
:401AC0009748131C5B009B185B00C3185B88994200D078E03B1C1F331B78032B4FD17B685B683C1C1A34181CFFF744FC031C23803B1C1A331B88002B41D03B1C1F331A78EE
:401B00003B1C0833101C01210422FFF73BFF031C002B34D13C1C18343B1C0833181CFFF729FC031C23803C1C16343B1C08330233181CFFF71FFC031C23807B685B683C1C6B
:401B40001A34181CFFF716FC031C23803B1C1A331B88002B13D03A1C1A323B1C183312881B889A4207D33A1C1A323B1C163312881B889A4203D93B1C1E33FF221A703B1CAC
:401B80001E331B78002B00D0A3E07B681A1D7B683C1C1E34101C00211A1C40230BF066FD031C23703B1C1E331B78002B00D090E05A4B1B687222111CFF313A1C0C32081CAF
:401BC000111C984785E07B681A1D7B683C1C1E34101C00211A1C40230BF048FD031C23703B1C1E331B78002B00D072E03B1C1F331A784B49131C5B009B185B00CB185B8840
:401C00005A1E4849131C9B009B189B00CB185A6880235B0113401FD07B685B68181CFFF7A9FB031C1A1C012313409BB2002B09D03A4B1B68B62251003A1C0C32081C111CF6
:401C4000984709E0354B1B686E22111CFF313A1C0C32081C111C98473B1C1F331A783049131C5B009B185B00CB185B885A1E2D49131C9B009B189B00CB185A6880239B01EC
:401C800013401FD07B685B68181CFFF773FB031C1A1C022313409BB2002B09D01F4B1B68B72251003A1C0C32081C111C984709E01A4B1B687022111CFF313A1C0C32081C33
:401CC000111C9847184B1B7802221343DAB2164B1A70164B1B78DBB201229343DAB2134B1A703B1C1D3301221A703B1C1F331A783B1C1F3301321A703B1C1F331B78032BA4
:401D000005D83B1C1D331B78002B00D1A6E63B1C1E331B78181CBD4609B090BDE010002080240100A82001002C2500204425002090B589B000AF3C1C0C3420807B603B1C7D
:401D40000B3319703B1C0A331A70314B1B78022B05D03B1C1E33832252001A8050E03B1C0B331A782B49131C5B009B185B00CB189B885A1E2849131C9B009B189B00CB18E7
:401D800008339B68181CFFF7F5FA031C1A1C022313409BB2002B05D13B1C1E33822252001A802DE03B1C0B331A781A49131C5B009B185B00CB185A883B1C10331A813B1CF9
:401DC00010337A681A603B1C0A331B789AB23B1C10339A803C1C1E343B1C0C333A1C10321868111C0AF0A6FF031C23803B1C1E331B88002B04D13B1C10331A89074B1A80C3
:401E00003B1C1E331B88181CBD4609B090BDC0463C25002080240100A8200100E410002080B586B000AF78603B1C163300221A702D4B1B68002B54D02C4B1B88002B50D024
:401E40003B1C173300221A7041E03B1C17331A782749131C5B009B185B00CB185A88234B1B889A422CD13A1C0C327B68111C1A1C0223081C111C1A1C00F0C5FD3B1C0C333C
:401E80003A1C173212789A703B1C0C3300225A60184B1B78DBB201229343DAB2154B1A70124B00221A80104B1B68B82251003A1C0C32081C111C98473B1C163301221A7058
:401EC0003B1C17331A783B1C173301321A703B1C17331B78032B04D83B1C16331B78002BB3D0BD4606B080BDE0100020E4100020802401004425002080B584B000AF021CB4
:401F0000FB1D1A700D4B1B68DAB23B1C0F3301218A431A70FB1D1A7801231340D9B23B1C0F333A1C0F3212780A431A70034B3A1C0F3212781A60BD4604B080BD0003044025
:401F400080B584B000AF021CFB1D1A700E4B1B68DAB23B1C0F3304218A431A70FB1D1B789B00DAB204231340D9B23B1C0F333A1C0F3212780A431A70034B3A1C0F32127835
:401F80001A60BD4604B080BD0003044080B582B000AF094B1B68DAB2FB1D7F218A431A70054BFA1D12781A60FB1D1B78DB09DBB2181CBD4602B080BD1002044080B500AFFD
:401FC00000F050F8054B181C00F00EF8032000F017F800F03DF8BD4680BDC046E11F000080B500AFBD4680BD80B582B000AF7860024B7A689A64BD4602B080BD0000002051
:4020000090B585B000AF021CFB1D1A701623FB603C1C0B3400F039F8031C23700A4B0A4A11680A4A1140FA1D1078FA68041C9440221C0A431A603B1C0B331B78181C00F0AC
:4020400028F8BD4605B090BD00E400E0FFFF3FFF80B500AF024B04221A60BD4680BDC04600E100E080B500AF024B04221A60BD4680BDC04680E100E00230800803D0013845
:40208000FDD1C046C046C0467047EFF3108072B6704780F31088704780B500AF0B4B0B4A126801218A431A60094B094A126830218A4310210A431A60054B054A126807218C
:4020C0008A4301210A431A60BD4680BD00F02E4000FF2E4080B500AF0E4B0E4A126802218A431A600C4B0C4A126807218A4302210A431A60084B084A126830218A43202122
:402100000A431A60034B034A126801210A431A60BD4680BD00F02E4000FF2E4090B585B000AF78603C1C0F34FFF7AFFF031C2370094B796807220A40D104074A1068074A46
:4021400002400A431A603B1C0F331B78181CFFF7A0FFBD4605B090BD00010B40FFFFC7FF90B585B000AF78607B68022B00D8BAE07B68302B00D9B6E05E4B1B78DBB21A1C1D
:402180007B689A420AD35C4A3B1C0F3312781A705A4A3B1C0E3312781A703FE0584B1B78DBB21A1C7B689A420AD3564A3B1C0F3312781A70544A3B1C0E3312781A702DE088
:4021C000524B1B78DBB21A1C7B689A420AD3504A3B1C0F3312781A704E4A3B1C0E3312781A701BE04C4B1B78DBB21A1C7B689A420AD34A4A3B1C0F3312781A70484A3B1C17
:402200000E3312781A7009E0464A3B1C0F3312781A70454A3B1C0E3312781A707B68DA1E3B1C0C3341498A5C1A703C1C0B34FFF72CFF031C23703B1C0C331B782F2B0DD9AA
:402240007B682A2B0AD93A4B19221A600520FFF713FF3B1C0D3319221A7007E0344B1B68D9B23B1C0D333F220A401A703A1C0C323B1C0D3312781B789A4208D22C4B7A68E9
:40228000033A2A498A5C1A600520FFF7F5FE294B7A68254952181278D2B21A60264B3A1C0F3212781A60254B3A1C0E3212781A60052000F079F93A1C0C323B1C0D331278F8
:4022C0001B789A4208D91A4B7A68033A17498A5C1A600520FFF7D0FE3B1C0B331B78181CFFF7D7FE02E0002000F030F9BD4605B090BDC046C0F1FF0FC1F1FF0FC2F1FF0FD4
:40230000C3F1FF0FC4F1FF0FC5F1FF0FC6F1FF0FC7F1FF0FC8F1FF0FC9F1FF0FCAF1FF0FCBF1FF0FCCF1FF0FCDF1FF0F9C2401002CFF0B4028FF0B401CFF0B4020FF0B4097
:4023400080B584B000AF78600023FB60154B154A126801210A431A60134B144A1A60144B134A1268802109020A431A607B68002B13D01023FB600DE0012000F015F900F073
:4023800019F8031C002B02D00023FB6005E07B68013B7B607B68002BEED1FB68181CBD4604B080BD60F02E4078002E400220000010002E4080B500AF034B1A6801231340CC
:4023C000181CBD4680BDC0460C002E4080B500AFFFF762FE044B044A1268802109060A431A60BD4680BDC04600F02E4080B584B000AF78600C4B1A6801231340FB607B68FF
:40240000002B02D0012B03D005E0FFF745FE06E0FFF760FE03E0002000F098F8C046FB68181CBD4604B080BD00F02E4080B584B000AF021C3960FB1D1A7080239B05FB60C7
:40244000FB1D1B781F2B02D9002000F07FF8FB1D1B7810339B00FA68D3181B68BB60FB1D1B7810339B00FA68D3183A681A60BB68181CBD4604B080BD90B587B000AF0A1C03
:40248000FB1D011C1970BB1D1A70BB1D1B78032B02D9002000F05AF8FB1D1B781F2B02D9002000F053F8FB1D1A7803231340DB0006337B613C1C1334FFF7E7FD031C2370BD
:4024C000FB1D1B789B08DBB29B0014495B181B68FB607B690322111C99400B1CDA43FB681340FB60BB1D1A787B69111C99400B1CFA681343FB60FB1D1B789B08DBB29B0050
:40250000064A9B18FA681A603B1C13331B78181CFFF7BFFDBD4607B090BDC04600E400E080B582B000AF021CFB1D1A70064BFA1D11781F220A400121081C9040021C1A60D5
:40254000BD4602B080BDC04600E100E080B582B000AF021CFB1D1A7001BEBD4602B080BD80B582B000AF786008E00C4B1B68181CFFF782FD7B680A4A9B187B607A68802378
:402580001B029A42F1D8074B1B687A685343181CFFF772FDBD4602B080BDC046BC0100200080FFFFB401002080B582B000AF021CBB1D1A80BB1D1B88044A12785343181C88
:4025C000FFF75AFDBD4602B080BDC046B801002090B583B000AFFC1DFFF757FD031C2370074B074A126804218A431A6030BFFB1D1B78181CFFF74DFDBD4603B090BDC046E1
:4026000010ED00E090B583B000AFFC1DFFF73DFD031C2370114B114A1268520052081A600F4B104A128892B21A600F4B0E4A126804210A431A600D4B1B683B600220FFF792
:402640006DFD30BF094B3A681A60FB1D1B78181CFFF71FFDBD4603B090BDC04600000B400C000B4052F1FF0F10ED00E000010B4090B583B000AFFC1DFFF707FD031C23708F
:40268000114B114A1268802109060A431A600F4B0F4A128892B21A600E4B0E4A126804210A431A600C4B0C4A1268FF218A43F1210A431A6030BFFB1D1B78181CFFF7E9FCBA
:4026C000BD4603B090BDC04600000B400C000B4050F1FF0F10ED00E02C000B4080B582B000AF78600A1CBB1C1A80BB1C1A887B681A60BD4602B080BD80B582B000AF786051
:402700000A1CBB1C1A80BB1C1A887B681A60BD4602B080BD80B582B000AF021CBB1D1A80BB1D1B88181CFFF73FFFBD4602B080BD80B500AF00F068F8BD4680BD80B500AF67
:4027400000F06CF8BD4680BD80B500AF00F066F8044B181C00F024F8032000F02DF8BD4680BDC0463128000080B500AF024B181C00F004F8BD4680BD3128000080B582B0DC
:4027800000AF786000F04AF87B68181C00F008F8032000F011F800F037F8BD4602B080BD80B582B000AF7860024B7A681A67BD4602B080BD0000002090B585B000AF021C35
:4027C000FB1D1A700623FB603C1C0B34FFF75DFC031C23700B4B0B4A1268C021101C8843011CFA1D1078FA68041C9440221C0A431A603B1C0B331B78181CFFF74AFCBD466C
:4028000005B090BD0CE400E080B500AF024B802252011A60BD4680BD00E100E080B500AF024B802252011A60BD4680BD80E100E080B500AF0FF0A0FABD4680BD002934D01A
:402840000123002210B488422CD301242407A14204D2814202D209011B01F8E7E400A14204D2814202D249005B00F8E7884201D3401A1A434C08A04202D3001B5C082243E5
:402880008C08A04202D3001B9C082243CC08A04202D3001BDC082243002803D01B0901D00909E3E7101C10BC7047002801D00020C04307B4024802A14018029003BDC046CB
:4028C000D90000000029F0D003B5FFF7B9FF0EBC4243891A1847C046002941D010B4041C4C40A44601230022002900D54942002800D5404288422CD301242407A14204D2A5
:40290000814202D209011B01F8E7E400A14204D2814202D249005B00F8E7884201D3401A1A434C08A04202D3001B5C0822438C08A04202D3001B9C082243CC08A04202D306
:40294000001BDC082243002803D01B0901D00909E3E7101C6446002C00D5404210BC7047002806D003DB0020C043400801E08020000607B4024802A14018029003BDC04625
:40298000190000000029EBD003B5FFF7A7FF0EBC4243891A1847C0467047C04670B50E4B0E4D0024ED1AAD101E1CAC4204D0A300F35898470134F8E70FF088FD084B094DE7
:4029C0000024ED1AAD101E1CAC4204D0A300F35898470134F8E770BDD8240100D8240100D8240100E024010030B50023934208D0C55C0133CC18013C2478A542F6D0281B32
:402A000000E0002030BD10B50023934203D0CC5CC4540133F9E710BD031C8218934202D019700133FAE7704710B501F063FA10BD10B501F075FA10BD10B500F0DBF810BD1C
:402A400010B50749044609780220002907D1204601F08CFA002802D1204608F0E1FF10BDD2020020F7B51F4E0024307815460F46002804D00824B76075802046FEBD002F63
:402A800000D1012401F04CFA0098002805D0172D03D301204002854201D90124EBE7002CE9D12946384600F023F80400E3D1706800F01CF80400DED1706800F015F8040041
:402AC000D9D101F035FA0400D5D1009806F060FB0400D0D106F072FB0400CCD101203070C9E70000C00100200020704700207047F8B50D4607460026FFF736FEFFF71EFE21
:402B000000F03EFA040065D100F0C8FB040061D13449084600F0D0FD0404240C5AD1A80705D0A807800F0421081A401985B2172D02D968002E3886B22B48301881B2384635
:402B400001F0BCF8040045D1284F03460246002825D127495E008E5B294610318E4207D99000C01941800221521C4170D2B215E08E420BD10020787690001D49C019468025
:402B8000891FC95C891C4170012012E0052A06D1164806461436418302207071012014495E008E5B9100C9194E80114EB61FF65C4E705B1C521CDBB2D2B2062BC7D30B48C0
:402BC00000F06CF8002C05D100F084F807490120891E087000F0E6F9002C01D0FF20F8BD0020F8BD092C0000940C0000CE0100200625010010B503480078012801D100F0AB
:402C0000EDFE10BDCC0100207047000010B5011F0878034A8000105800F0F0FF10BD0000E810002010B5044604498000085800F053FF002801D00470001D10BDE8100020ED
:402C400038B5044692B2C9B2684600F06BFF024AA1000098505038BDE810002070B50B49064600204C6805466178002908D06188B14202D32078FFF7D5FF002804D1241D15
:402C80006D1CEDB2082DEFD370BD0000F001002010B5002801D0FFF7B9FF10BD70B50B4E0446002570606178002905D062882078121D0023FFF7C4FF6D1C241DEDB2082DBF
:402CC000F1D3024800F0ECFFB06070BDF0010020002070471CB5002469460C70142001902346054A05480CF033FC04480068401C00D1FF2420461CBD512D0000FC010020D3
:402D00003EB5124A0146FF2000230124126800290DD0012914D0042908D104206946009308814B8110460CF00EFC80B23EBD6846009304814381694610460CF0FFFBF4E75E
:402D400068460093048143816946EBE7FC01002070B54589046841680089030000F026F806240408081D2124002005F0E9F91BE0022908D0C8B22A4621460AF0D5FE204670
:402D8000FFF786FF10E002202A4621460AF0CCFE2946204600F018F806E000200CF0CCF802E020460CF05AFC002070BD30B47446641E2578641CAB4200D21D46635D5B00EF
:402DC000E31830BC18470000014B0022DB6818470002002010B542890168094B00899C68022803D0032804D0FF2010BD0023012003E0121D002392B20220A047002010BDE6
:402E000000020020704700000248002141600180418070470002002070B50C46002186B016460391012802D0022859D116E003A9012006F0E8F801281BD1039D3246214658
:402E40002846FFF7E0FD0095287801900220694608814E816846FFF7BDFF41E0214D002B686809D0049004A9022006F0CCF801281DD0022006B070BD002812D02988401814
:402E80002146FFF7C0FD28880024801980B228806988091D884206D12C801348FFF79AFF03E00320E6E788421AD96C6018E004986860E278A378110219430B4A6980002366
:402EC0001060E3565360032313815181A1788170E178C1706178417021780170042028800020C7E70002002008110020F7B5022784B016460546022802D0042D29D106E010
:402F000005980090019568460781428113E01046FFF7A4FE040016D032460599FFF773FD68460195009407810B4B4681DB6800223146059898470948694600680CF003FB57
:402F4000012007B0F0BD044B0022DB683146059898470020F5E7000000020020FC010020014AD1609060704700020020034801688068081A0A21484300097047141100202C
:402F800010B5FFF7E1FB542204490548FFF73BFD03490120C870002010BD0000162501006413002010B5FFF7C3FB10BD70B5134C2368002B08D0207B1149C20705D04008A4
:402FC000400020738868A08070BD88680B4AA18880B29268814203D90A4D691A091802E0814202D2411A5118A160A080A0689842EAD300F015F80CF0C3FA70BD1411002068
:40300000C0102E40FFFF000010B508461946FFF7A7FF10BD704710B5FFF768FF10BD000003480021016041608160C160704700001411002010B502000DD0FFF7F1FF074C8A
:403040000321207B0843207310010A21FFF73AFC2060002010BDFF2010BD00001411002000B504480A21806848430209FFF7D8FF104600BD141100200248007B8007C00FC3
:40308000704700001411002070B558490868002802DA574B01221A70022290430860554800695249C00B4031096A08426CD0012000F0BEFA4F4850497C30FFF71DFB4B4810
:4030C0000E216C30FFF718FB4A4820218430FFF713FB484814219C30FFF70EFB4548FF21C131A430FFF708FB4248FF212F31B030FFF702FB3F484149BC30FFF7FDFA3D4829
:403100003F49AC30FFF7F8FA3D493A48491CB430FFF7F2FA37483B49B830FFF7EDFA35483949CC30FFF7E8FA324838490830FFF7E3FA30483649A830FFF7DEFA2D483549DF
:403140008830FFF7D9FA2B4833498C30FFF7D4FA28481921C9029030FFF7CEFA2F4D287E697E0C020443A87FE97F2D4A090201432C48914201D1072C08D0352292019142D8
:4031800008D1042C05D005E0FF2070BD0146042400E0014617486C30FFF7AEFA154821467430FFF7A9FAA87EE97E0902014301204003814201D0002900D11B490D487830A1
:4031C000FFF79AFA2A7F687F010218481143814204D01748814201D0052901D113490A3904488030FFF788FA002070BD00F02E401002002000002E40556500003203000027
:403200002F3F00003102000010520000EC160000FA12000031D000003AE30000C0F0FF0F580B0000580D0000022000000F0F00000505000070B50646581C80B245086D00BE
:40324000002408E0304600F07FF81055000A1119A41C4870A4B2AC42F4D3D80705D0D0182038D15CC47FD454C17770BD30B50A4C002100195B1E07E0541864782502545C64
:403280002C430480891C89B29942F5DB994201D1515C018030BD000000102E4010B5FF2000F0C6F90F49FF2088700E481021801D41800121417001700A490020091D4870CE
:4032C000FFF7E2FE04000AD100F0DAF807210648FFF704FA044807211830FFF7FFF9204610BD000010020020CC112E4030B504465B1C1804450C002308E0204600F024F803
:40330000241D59005B1CA4B250529BB2AB42F4D330BD000070B500210A4D5B1E0AE0541864782602545C344346193480001D891C80B289B29942F2DB994202D1515C401961
:40334000018070BD00102E40014940180088704700102E40014A80180180704700102E4010B508490020487000F08AF807210648FFF7B4F9044807211830FFF7AFF9002036
:4033800010BD000014020020CC112E4010B506480078012803D102210448FFF7ADF902490020091F087010BD1402002070F02E4010B50B46062812D006DC01280CD0032818
:4033C00001D1FFF7CDFF10BD0A28FCD00B28FAD105480078107010BDFFF760FF10BD1146184600F057F910BD16020020F8B5214DAC6A0127A007204E002818DA30780628E4
:4034000010D1286A384328621C480069F903084381B21A481030FFF76FF9301F4770042000F006F9134802212830FFF757F9E00711D0062000F0FCF80F49FF20091F88702F
:403440007078002802D1686B38436863094801212830FFF743F9E0050BD53078042802D1052000F0E5F80348FF2101312830FFF735F9F8BD40F02E401402002000002E40E5
:4034800010B503212348FFF737F90120FFF742F920483038406A204C80076178800F890001431C480C38FFF727F96078002808D0401E022181401820FFF764FAC00008383A
:4034C00000E0B82081B21548FFF716F91348032109021438FFF710F910481149B830FFF70BF9452189010F48FFF706F90D480321001FFFF701F90C490C48FFF7FDF80B486B
:403500000B496038FFF7F8F8084801218838FFF7F3F810BD70F02E4016020020D8102E4090890000041E2E40FF0F000058122E4020900000044800684007400F022801D0F9
:40354000002070470120704700010B4000B5FFF7F1FF002805D009480168C908C900016000BD0748016A490849000162054801690122D2039143016100BD000000010B40A1
:4035800040F02E4000002E400849087806280BD148780749002803D1486B400840004863C86A01221043C862704700001402002040F02E4001480078704700001402002027
:4035C00002488078022800D0012070471002002000B50300FFF7EAFB080D050D0B070507090D012000BD032000BD042000BD022000BDFF2000BD0000074A9168D26889B27E
:40360000064B92B2994204D105498A4201D1012100E000210170704780002E4033D000003FE3000001494870704700001402002010B50446FFF782F8072C01D9FF2C01D183
:4036400002480470FFF774F810BD00001402002001498870704700001002002010B50A4A141D012808D009491046FFF745F808492046FFF741F810BD04491046891CFFF7E5
:403680003BF80349491DF3E788002E4031D000003AE300000078074AFF2803D04C2804D9553803E01078087070474F3808701070704700001302002010B50F4A00231360DD
:4036C0000E4A13600E4B18600E4801600E49012008600E490860000290600E490C4808600D4914300860FF381538506000F0BCF800F0CAF9002010BD340200201C020020C5
:40370000480200204C0200203802002028020020241200202C02002040020020014610B50020002910D0094B1A689C685118A14209D25868196080188A0704D08A07920F69
:40374000891A091D196010BD002010BD1C020020F8B50024164E671E321F3D463168136806E01422624310328A58521C1BD0641C9C42F6D36A1C14D02C46142254432246F7
:403780000C3288500C214843FFF7C8FF3168002808510AD031680020103408517068401C70602846F8BD2546E4E73846F8BD00002C020020F3B50026F64381B000281BDB00
:4037C0001E490968884217D80299002914D01B4F142204463F1D54432546396810354859401C09D0FEF7AAFF38682F1F4159C359994203DBFEF79CFF3046FEBD2146083130
:403800000091465801590C20704308180C220299FFF7F9F80948761C001D0068C159B14200D100260549009A091D865008684159491C4151FEF77CFF0020FEBD280200206A
:40384000002803DB07490968884202D90020C043704704491422091D09685043103008587047000028020020F0B500200D4A451E0346171F50600FE0142601467143146866
:403880000E1DA3510C461668083433511668083435511468401C635039688842ECD30020F0BD00002C020020F3B50026F64381B0002841DB2349096888423DD8029900294D
:4038C0003AD0204F142204463F1D54432546396810354859401C2FD0FEF730FF3868415900292BD0211D009146580C21005971430F46C1190C220298FFF785F81148002182
:40390000001D0068761C00590C34C0190160416081600C48001D00680159B14200D100260849009A091D865008684159491E4151FEF7FEFE0020FEBD3046FEBDFEF7F8FE2C
:40394000FAE7000028020020FEB504460D4600201E49089E0860471E009001900290002C11D0486885420ED2002A0CD0002E0AD0642E08D808460C3001681C2068430C183D
:40398000207A002801D03846FEBD0120226020721846FFF7DDFE6060401C13D06681A6810A4827610C3067610179A94200D205710021684601810A462846029B00F040F86B
:4039C0002846FEBD00202072DDE700003402002038B50124009400F039F838BDFEB50027164EFF433D4600240EE01C20316860430818017A002906D04068FFF721FF002809
:403A000001D0254603E0641C3079A042EDDA681C12D01C2130684D434419FEF78FFE69466068FFF741FF0546FEF782FE002DD9D1216868468847D5E7FEBD000040020020C8
:403A400038B50024009400F001F838BD1FB500220C49541E0A60002811DB496888420ED808491C220C31096850430818406801A9FFF7A0FE401C02D0002004B010BD20461C
:403A8000FBE7000034020020F0B50021114A4D1E174611710C3F0B46BD6016E008461C2460431668041D355114680646235014680836A3551468361DA353044616680A34A6
:403AC000335318301468491C255078688142E5D30020F0BD4002002038B500210091002811DB0F49097888420DDA0D4D04010C3529680859002807D0201D0818694600F04E
:403B00005FF9002801D0002038BDFEF717FE28680F34015D491E0155FEF70AFE009838BD50020020F7B582B00025ED43029800240E460560002A49D0002E47D02D48D21C96
:403B400002402D48174601780C30006805E022018258002A0FD0641CE4B28C42F7D3691C3ED02C01211D40180191314600F016F900282BD101E02546F1E71F480C300168C9
:403B800020460C300F521C480C30016820460E300E5419480C30016820460F300E543846704300F0ADF814490C310968002808510CD00024009011E00F480C30016801987E
:403BC0000818009900F017F9002802D0012005B0F0BD0098C019641CE4B20090B442EBD30298054905600C310879401C08710020EDE70000FCFF000050020020F8B50D4683
:403C000000216A468C461180002839DB23490978884235DA214B04010C3319680A59002A2ED020460C300B5A801C0E5C184670438018954224D3854222D2002006E0074600
:403C40005F43BF18AF4206D0401CC0B2B042F6D36046002814D0114E271DC8190C366A46294600F0F2F800280AD168460088012808D030682946C01900F0BDF8002803D050
:403C80000120F8BD0020F8BDFEF758FD30680F34015D491C0155FEF74BFDF3E75002002003460020002B06D0034A5168906852884018511A198070475002002070B5002482
:403CC00000F0DCF80D4E002132460C3271600EE0200113680546195013680C355953AD1C13680F3059551368641C1954E4B230788442EDD31171002070BD000050020020B9
:403D0000014610B5002000290CD0C91C064B8A08596892005C888A18A24202D898685A60401810BD002010BD50020020F8B5002827DB19490978884223DA174C05010C348B
:403D40002168485900281CD028460C30085A009028460E300E5C401C0E5420682F1DC01900F064F800280CD12068002445590EE0094829460C300068C01900F03CF80028D6
:403D800001D00120F8BD00982D18641CE4B2B442EED30020F8BD00005002002030B50D4604000BD0A800FFF7ABFF6060002805D000202570C0436080002030BD012030BD9C
:403DC00070B50D46040005D0002D03D00220205E002801DA012070BDFEF7B0FC0221615E60688900405828606088401E6080FEF79FFC002070BD70B50D46040007D0002D0A
:403E000005D002212078615E401E814201DB012070BDFEF793FC6088401C00B26080616880000D50FEF784FC002070BD10B5040009D0227800216068FEF7EEFD0020C043FE
:403E40006080002010BD012010BDF0B500231D46002802D00224045F0AE00120F0BD46689F00F6598E4201D1012503E05B1CDBB29C42F4DA15700020F0BD0000054B112255
:403E80001A70054A1180064A0449116005490860704700005002002052020020541200205C020020580200200148007870470000640200207CB505460024FEF7B9FDA8794F
:403EC0006946087000A8062229460130FEF79BFD0021684604F092FB0C2804D0072804D01F2804D004E0022402E0042400E0272420467CBD10B502280BD0032802D0042857
:403F000009D102E000F0D4F805E000F0A3F9FF2801D100F0B3F9FFF74DFBFFF759FB10BD10B500F0DBF9FFF745FBFFF751FB10BD10B503240CF00CF8002810D10BF0B0FF41
:403F400000280CD105F0AEF8002808D100F098FB002804D104F0ACFD002800D10024024900200870204610BD6402002070B50025044600280ED0A07901280BD8FEF758FDC1
:403F8000A0790028204602D002F0C8FF03E002F07DFF00E00125284670BD10B5FFF70AFB012801D1FFF70CFB10BD38B504460120002C20D0617801291DD800290BD0FF25C4
:403FC000E535FEF735FD2846FFF7BEF9C0B22070072803D00EE0FF25CD35F2E70020694608706846FFF708FB69460878012801D108202070002038BD70B504460120002CD3
:404000001FD06178012902D92278092A19D8002906D0FF25E53520780726092803D003E0FF25CD35F7E72670FEF702FD2078082808D00020FFF712FB21782846FFF78AF93B
:40404000002070BD0120FFF709FB2670F4E7000070B50D46040001D0002000E00548002802D0012102F004F92946204602F066FC70BD0000D813002038B5054600200446BF
:40408000009022466946284600F092FF0098002801D00BF03FFFA878214602F00EFAA878214602F0FDF9641CE4B2052CE9D338BDF8B5624CFFF77EFA012846D1604800788F
:4040C000002842D002F0BEFB0028FAD003F0A0FF0028F6D05B4E7078C00703D000F03DFC0128EED0B07E0028E7D170780025002878D0000707D5AC20FFF726F9070B00F0DD
:4041000057F9384321D14F484178684603F05EFE4D4F06462079B9784018C1B2B14271D802F090FB002810D0464C203402F0B7F96846008802F0E3F902F08CFA4349098816
:40414000884203D10120FFF773FA74E04049012008703C48807B00282BD04034608A002827D0E07E002824D1A1200001FFF7ECF8208A4000B04218D97878002815D1A124E1
:4041800024012046FFF7E0F80221884301462046FFF7E0F8FF24F1342046FFF7D5F80321090201432046FFF7D5F83878002800D03D7002F0E7F90120FFF734FA244C08E06C
:4041C000FEF706FAFFF7F6F906282CD02078002829D0FFF7EFF9062825D020780128EFD021E0FFE702F02EFB002824D0142002F086F9174C0120207002F0C4F90020FFF7E5
:4042000011FA09E015E0FEF7E3F9FFF7D3F9062809D02078002806D0FFF7CCF9062802D020780128EFD0207801288BD1FFF78EF925700020F8BDFF20F8BD0000A41300207B
:4042400010020020B81300206A0200207C0200206502002010B50848FF244078002809D102F0F0FA012805D1FFF790F80720FFF7DFF90024204610BDB813002038B5FFF70B
:4042800099F9012801D0002038BD02F0DBFA00280AD0114C6078C00703D000F05EFB012802D0A07E002801D0FF2038BD617800290FD0684603F08AFD022806D9684600880E
:4042C00002F01DF9012002F063F90320FFF7B0F9D9E70020F7E70000B813002038B5FFF769F9224C2178012911D0062813D0032836D007280AD10020694608700246012089
:40430000FFF756F8FFF756F90128FBD138BD20780128FCD038BD02F059F9FFF74BF90128FBD120780128FCD0A12424012046FFF70BF801210E4A83079B0F1170022BE9D129
:404340005288002AE6D001432046FFF703F82046FEF7FAFF410849002046FEF7FBFF38BD02F038F90120FFF763F938BD110200206A020020F8B50646002402F0E1FE054635
:40438000304602F0F5FE00210346012632468A40174610462F401840002F03D0002801D1224394B2491CC9B20529EFD32046F8BD70B500252C460A4E03E0002C01D00020AF
:4043C00000E030460079002803D02046FFF7D2FF0543641C2406240EEFD0284670BD0000D81300201CB50020694648706846FFF7DCFD01AA69460A20FEF7DAFF6946042043
:4044000008561CBD10B50C4601F076F9002809D00179002906D0C1788078224602F03CFB002010BD022010BD0148007870470000A41300204030C07E002800D001207047E9
:4044400000B500F001F800BD88214843064940186030417F491CC9B24177052901D300214177C8B270470000B813002013B501F043F904000BD001F0CEFC002807D0214632
:4044800001AA0A310620FEF793FF00201CBD02201CBD000010B50C4601F02EF900280AD001F0B9FC002806D0224604490A20FEF77FFF002010BD022010BD00008D130020B2
:4044C000F3B581B0074601460026029802F030FE0446002F01D0002500E0154D002D21D0284601F03FF9032C04D13946029802F049FE06463846029901F0D2FF032C06D087
:40450000002C10D00121384601F04CFA03E03146384602F0EBFF284601F090FE0221284601F0A6FEFEBD3846029901F0B9FFFEBDD813002070B50446002503F0DDFB002807
:4045400001D00C2070BD2078611C02F09FFBFF2802D01F25284670BD02F0ECFBFF2804D02178621C01F00EFFF4E70725F2E710B503F0C2FB002801D00C2010BD02F05EFB1D
:40458000002010BD70B50D46044610210BF002FC1021601806460BF0FDFB334610221946204603F0D5FB102130460BF0F3FB02202870204604F0D4F970BD70B50446407842
:4045C000217802028006850FE0781143A67809050002090D0643084601F08EF8002812D0022D10D0032D0ED0002E08D00179092909D0002907D0214600F0A1F870BD0089AE
:40460000002104F0E2F820460BF084FC70BD0020704770B50446002503F06EFB002801D00C2070BD2078611C02F030FBFF2802D002F072FA00E01F25284670BD10B504F063
:4046400037FA00F0F6F8002010BD10B5044600786178E2780843A17811430843217908436179084305D003F039FB002803D00C2010BD122010BD204602F050FC002010BDF7
:4046800010B5044803F054FC02F050FA00F004F8002010BD74130020F8B5114D00266E706E736E716E76AE76EE766E75AE70EE70AE712F46EE730120B03778723F20787121
:4046C0009B20B87100F00AFA0024204601F06AFB641C2406240EF8D03E72FE71AE73F8BDB813002070B505460E46084602F028FD0446304602F03CFD0121A9400A462240AD
:4047000001400A4301D0012070BD002070BD10B50446084602F02CFD0121A140014201D0012010BD002010BD10B5FEF743FF032804D101F04FFF0120FEF77AFF10BD70B559
:40474000044600790D4609281CD000281AD020464030817E491C8176204601F06FFDA078FFF76EFE064602462946204600F00CF8002806D1A0783146FFF76AFC28460BF0D6
:40478000C9FB70BD0846FAE7F7B5054648780C468006870FC8788978000282B0014368468180284601F042FB060007D021462846049A00F091FB304605B0F0BD384600F09E
:4047C00039FC0746034601AA2946204600F0CAFA68468088231DC0B20090A878FF22049902F066F8684680883B46C2B2A878049902F010FCDFE770B5002500242846FFF796
:40480000B9FD060010D03046E040C007C00F07D02146284601F037FE21462846FFF750FE641CE4B2052CEED36D1C2D062D0EE4D070BD10B502F07AF9FFF72EFF0BF0D2FBD0
:40484000002010BDF8B5002400F081F80123012800D10124104F00203E4620360425082203E0002801D0002100E031460979002907D001290BD002290BD0114681402143C5
:40488000CCB2401C0006000EEBD07C70F8BD1C43F7E72C43F5E70000B813002010B5FFF7D1FF10BD10B50B4681791943817103D08078114602F072FB10BD10B582798A43AA
:4048C000827102D1807802F081FB10BD70B5FF25D53502242846FEF737FD0C4A9178002901D0022906D1137852789A18282A01D9032402E0032900D101244105490DE00278
:4049000001432846FEF726FD70BD00006602002010B500F022F8002807D0012805D0032801D0042801D0002010BD012010BD014610B50020C90701D000F009F810BD014686
:4049400010B50020C90701D000F001F810BD10B52020FEF7F9FC000A10BD10B51820FEF7F3FC410501D5042010BD4007800F10BD38B5044640060CD5684601F03BFE02204C
:40498000FFF78CFF072002F0EDF96846007801F071F9200613D5FFF7E0FF01280FD1684601F028FE6846007800F09AFA072002F0D9F9012001F0AAFC0220FFF76FFF38BD7D
:4049C00010B5034A0178117002F0DBF9002010BD6602002010B50446FFF7B9FF002801D00C2010BDA27B01211848002A827801D00A4301E05208520082706279012A0FD07C
:404A0000C17849084900C170207901280CD06188208802F0D9FF2080207904280BD00DE0C2780A43C270EFE7E01D02F05FFA0848808C208002E0E01D02F058FA054920796F
:404A40008870204602F0ACF9002010BDB8130020641300206602002038B50478FFF777FF844201D10C2038BD002C18D0072069460870FFF74DFF012807D10121684600F057
:404A80008DF8012801D0092038BD6846007802F069F9FFF71BFF02F0B3F9012010E0FFF737FF012806D1684601F0A4FD6846007800F04AFA072002F055F902F095F9022051
:404AC000FFF7ECFE002038BD10B5034A0178517002F03CFA002010BD6602002038B568460BF0AEF9002801D01F2038BD01210098C902018041800025057145718571072138
:404B00004173857302F04CF9009C202200212046FDF782FF25702A460021601CFDF77CFF204602F02EF9204602F010FA00980BF0F1F9042200210248FDF76EFF002038BD42
:404B4000660200200346084800B5834209D8184600F0D2FD002804D00089984201D1012000BD002000BD0000FF0E0000074A9179491C8906890E917138220A409201490734
:404B8000090E11430843024908407047B8130020FF0E0000C006C00E70470000F8B507460E4600240D4803E0002C01D0002500E005462979002905D0641C2406240EF3D07C
:404BC0000020F8BD204601F0EDF82E712046FFF7CDFF28813C700120F8BD0000D813002010B503F0E9F80222002100F003F801F045FF10BD10B5094B40074907000F090F05
:404C0000185A595A40185043C0086421FDF75AFE002800D1012080B210BD00006A250100F7B53D20405C88B016460C46002829D030786946087200252046FFF7FBFB012805
:404C400000D00125204603A938300191009023460327A17E34332A46206A03F083F902A8089900900B46019120463A4603A9243003F050F802466846007A3070204601F0DA
:404C80007DF810460BB0F0BDFFB587B00C4605461078694608723D20005D1746002826D000262046FFF7C6FB012800D00126204603A93830019100902346A17E34333246ED
:404CC000206A03F04FF902A80090291D019120462B1D03A924300A9A03F01CF802006846007A388002D1204601F048F810460BB0F0BDF7B53C20405C88B015460C460028C9
:404D00000CD0287869460872002806D000262046FFF790FB012803D003E01F200BB0F0BD0126204603A938300191009023460327E17E34333246E06903F014F902A8089915
:404D400000900B46019120463A4603A9243003F013F802466846007A2870204601F018F81046DBE7FFB505463C20405C87B016460C46002810D0084601F058F801280BD0DE
:404D8000308869460883002809D000272046FFF751FB012805D005E000200BB0F0BD0220FBE70127204602A93830019100902346E17E34333A46E06903F0D4F806A800900A
:404DC000291D019120462B1D02A924300A9A02F0D3FF02466846008B30806846008BA870000AE870204600F0D3FF1046D5E770B50D460446FFF71EFB01280AD0E87AA97A4F
:404E000000020143A07801F0F7FC012808D0002070BD00222421204602F020FD242070BD28214C200155204600F09AFB282070BD002801D0002000E003484030C07F01280E
:404E400000D0002070470000D81300200146002049070ED50021084B03E0002901D0002200E01A461279022A04D0491C0906090EF3D0704701207047D81300200146002059
:404E800049070ED50021084B03E0002901D0002200E01A461279022A04D0491C0906090EF3D0704701207047D813002010B5044680346068002803D00BF040F80020606000
:404EC00010BD4030417070474030817070474030017070470171704792001018C166704770B53C2501F02CF9040004D020460021433001F021FC2946204600F0C0FB002C74
:404F000002D0A07801F0AEF870BD000010B5002801D0002000E00348002802D0008903F09AFC10BDD813002010B5002801D0002000E00448002804D00179072901D100F064
:404F400041F810BDD813002010B501F0F9F8002802D0807801F086F810BD00207047000070B50546008A00281ED010491122897A1140C90618D5294640314A8A098A521C13
:404F80004A4392B2D10800D10121540801E0621A94B2A042FBD9FEF787FF012804D1298AA878224601F018FD70BD00006413002000230B60052A04D292001018C26E0A603A
:404FC000C366704738B5044600200090A079002814D14020015D052901D00E290ED168460AF03EFF002809D12046009902F01EFC03481021C28A2046FFF754FC38BD000096
:405000006413002010B50B4604460146184602F0EDF8002802D020460AF086FF10BD13B5044601AA11460620FEF7C2F96846818861811CBD002800D102207047704700006C
:40504000F8B504462346401D543300909A1EA078911E01F0DEFA25464035A88A298A8000FDF730FC401E81B2688A884203D96982A07802F01EF820460021433001F05CFB39
:405080008020FEF761F9E88102F096FEE989891C8AB26179FFF7AEFD01F0F0FC02F08CFE2A8A6179FFF7A6FD074601F0D9FC688A00280BD0FF26F1363046FEF745F90321A3
:4050C000090201433046FEF745F902E0002001F0DEFFFF206130FEF737F96E8A002E0BD070431049FDF74EFC0004000C01D0401C80B20D49488002E00B4800214180288A72
:40510000704381B2A07801F02FFF2837B9B2204602F05EFCE98AA07801F07EFEA07801F0E2F9F8BD710200006A0200207FB504468034616805460E46183108226846FDF797
:4051400062FC31462031082202A8FDF75CFC102168460AF01FFE6068102108300AF01AFE60682B46083024331022694602F0F0FD7FBD10B504460821FFF79FFB102120468D
:40518000FFF79BFB207905281FD006281DD008281AD12189002003F0D7FA072020712046FFF748F9014620464030012913D00E21017000210176204600F060FF2046FFF722
:4051C00075FE2046FFF7CCFE10BD20890122002103F09EFAE1E70521EAE70000FFB581B01F4604460821FFF768FB10212046FFF764FB2079082803D0092804D0042203E066
:405200000422012501E009220025204600F0FAFD264600204036307022712046FFF746FE0398002D02D0012808D00BE001280AD120890022029903F06BFA04E0218902985F
:4052400003F082FA012700203076012F04D0204600F014FF05B0F0BD02983073204602F029FB054605480121C28A2046FFF71AFB002DEFD109202071ECE7000064130020C1
:4052800070B50C460546FFF7D5F8012809D108212846FFF712FB0023012221462846FFF79DFF70BD10B5044600F0ACFD2046FFF7FDFD00214034217010BD70B505461A2453
:4052C000FFF7B8F8012809D108212846FFF7F5FA0023012221462846FFF780FF70BD0000F8B50446002000900E4668460AF0B8FD002801D00D20F8BD842000590821203023
:40530000009D00F0F4F920460421383000F0EFF9002E02D1204600F0B3FD2946204602F015FA0E480821C28A2046FFF7BBFA204600F00BFF25464035002808D0204600F0D9
:4053400023F8002801D0092028700020F8BD08202870204600F072FFF7E7000064130020014610B540310A460978082906D0092907D00A2901D100F091F810BD0B20107033
:4053800010BD00F001F810BD70B50446007925464035052805D0062803D008280FD00C2070BD03220621204602F058FA0D480821C28A2046FFF776FA1120287010E00620CC
:4053C0002873204602F076FA0646AA8A0A20424301212046FFF766FA002E01D109202071002070BD6413002038B504460020009068460AF035FD002801D00D2038BD20465D
:40540000009D00F08BF908202071204600F038FD2946204602F0CCF900213D2001550F2040210855204600F009FF002038BD00B5024600F0E7FC10214032117000BD10B5E1
:405440000446FEF7F7FF012809D04020005D112805D100231A4606212046FFF7BFFE10BD10B5FFF786FE10BD38B504460021684600910AF0F5FC00280CD12046009902F015
:405480000EFA05480821C28A2046FFF70BFA0D204034207038BD00006413002038B504460021684600910AF0DBFC002801D00D2038BD2046009902F0E7F905480821C28AEE
:4054C0002046FFF7EFF90C2040342070002038BD6413002000787047F8B50025002801D0002400E01A4C002C28D0204600F093FC002823D0207903281CD005281CD02646CF
:405500004036B18AA07801F03DFDB078012815D10021204601F087FE274680373868002802D00AF00BFD3D600020B0702079072805D007E0042000E006202071F8BD20464C
:40554000FFF70EFD0221204600F092FEF8BD0000D813002010B54C22115400F046F810BD10B50446FF21FFF7A8F909202071A07801F038FD10BD000038B5FF216A461180F5
:40558000002801D0002400E0064C002C08D011460620FDF70DFF684601882046FFF73FFD38BD0000D813002010B504468079002809D022214C200155FF212046FFF77DF94C
:4055C000204600F012F810BD10B5037902464032002B03D01173092B02D003E0002100E02221117300F001F810BDFEB504460089002701902781207926464036002817D02A
:40560000012815D002280AD112E002AA6946204601F0DAFD002807D100980AF085FC204601F0FAFD0028F0D02046FEF725FDB776254680352868002802D00AF07FFC2F603B
:405640006868002802D00AF079FC6F60317B002902D0019800F044F8A078002100F05CFF2046FFF7BDFAA07801F0B0F8A07800F0F9FC0B20FFF712F900F038FCFEBD70B541
:405680000E46054602F094FB044606702846FEF7D1FE014601204140204661700C3001F034F8002D10D02889608028464030C1782171002E10D169796171018AE180418A9E
:4056C0002181808A608107E01820FDF73DFEC005C00F207100206080204602F0DEFF70BD0A4610B50146002003F0CDF810BD10B50AF02CF910BD000000B50146FFF74AFA60
:40570000002801D0002000E00348002802D002898A4200D0002000BDD813002038B5044680346068002806D168460AF0A9FB002801D100986060606838BD000010B5014603
:4057400000F074FB0128887802D0FEF77DFE10BD88214843024940186030007F10BD0000B813002070B5054604464035A87F012811D1A1788820084A484380186030067F48
:405780003046FEF7AFFF002805D10220A877A078314601F0E1F870BDB81300200EB500220A216B460292198100905A811046029B00990AF035FC0EBD10B50E4CE0790028A4
:4057C00016D0FFF718F80C48827FC17F808B00F095FB01280CD10020E07100F014FF0446AC20FDF7B1FD010B02D0204600F032FA10BD000068140020B81300207047704749
:40580000490510B5490F0B00FDF7D0FA060704080C0C0F073E21FFF79DFE10BD0821FFF7D3FE10BDFFF7E1FE10BDFFF7BDFE10BDF8B507460025002D01D0002600E0204EC2
:4058400000F096FE3046403044890021418100F0B5FE304600F0DFFA01282CD1A00702D52846FFF739FEE00602D52846FFF784FEA00602D52846FFF791FF600601D500F0AD
:40588000F1FA200602D5284600F01CF8600702D5284600F023FA380402D52846FFF744FB780402D52846FFF731FBE00703D021463046FFF7A5FF6D1C2D062D0EBBD0F8BDD4
:4058C000D8130020F8B5002801D0002400E0204C002C39D025464035A878012834D1E98AA07801F099FA2046FEF7A4FD01282BD002F062FA2A8A6179FFF77CF9064601F071
:40590000AFF82836B1B2204602F062F8E98AA07801F082FAFF206130FDF716FD6E8A0D4F0146002E11D0304648430B49FDF72AF80004000C01D0401C80B27880288A7043BD
:4059400081B2A07801F010FBF8BD0020F5E70000D81300206A0200207102000038B5002801D0002400E00D4C0020009068460AF077FA002811D12046009901F0C5FF607E7D
:4059800002210843607606480421C28A2046FEF789FF0221204600F06BFC38BDD81300206413002070B50D46124A010001D0002401E014462034002C1BD0204600F036FA94
:4059C00001280AD18820484380186030007FFEF789FE002801D101F0F7FE20464030817E491B8176204600F029FC2089294602F0ECFE70BDB813002070B503460088FFF7CA
:405A00007BFE040013D000F006FA00280FD02079092819D02546997840352973204601F049FF0646A878012803D0AA8A02E0022070BDEA880A20424301212046FEF732FF94
:405A4000002E01D109202071002070BD0EB5002217216B460292198100905A810120029B00990AF0DDFA0EBDF8B5184E0024F079002820D10025AC20FDF766FC000B21E0B9
:405A8000204600F075FEFDF75FFC07462A46214600F034FA01280FD00D48012187838577C477F171002D01D0002000E02030002801D000F0C3FBF8BDAC20FDF745FC000BB4
:405AC000641CE4B20028DBD1F8BD000068140020B813002010B50088FFF70EFE002809D0014640310C460978082905D00B2903D00C2010BD022010BDFFF746FC002801D07F
:405B000009202070002010BD70B503460088FFF7F3FD040008D0254640352878082805D00B2803D00C2070BD022070BD8420005910220830991CFCF766FF2046FFF7F6FA14
:405B40002878082804D02046FFF7A8FC002801D00A202870204600F071FB002070BD000010B50C46002121700088FFF7C5FD03000BD000F050F9002807D009481121807A1B
:405B80000840C00603D4112010BD022010BD022020701A8A1889002102F092FE002010BD64130020F8B50F46002100910088FFF7A3FD040012D000F02EF900280ED0E079C7
:405BC000410641D4617E02264A07002A08DB8907402500291ADA2843E07135E00220F8BD02F0E6F80021017021894180A1898180217E4170E189C1803E700546017813486A
:405C000002F0C4FB284602F0FEFD1DE0204600F013F9012806D068460AF022F9002803D00720F8BD2A20F8BDE07900992843E071204601F069FE607E04213043607604485D
:405C4000C28A2046FEF72EFE0020F8BD1D040000641300203EB500220F236C460292238100910190628169460EC900200AF0D8F93EBD000070B5054600F062FA040027D06B
:405C800003202071254600264035EE76E6702046FFF7D6F901F0A8F80920FEF7FFFDA07800F082FD0121204600F0E2FA2E706E70AE7000212046FFF7E2FC0749887B401C1B
:405CC0008873A078FFF74AFE012001F0BFF970BD284601F087F970BDB813002010B5002801D0002400E00A4C002C0FD020464030417802290AD1002141702046FEF79AFBEB
:405D0000002803D10221204600F0B2FA10BD0000D813002070B503460D460088FFF7ECFC04000BD000F077F8002807D012481121807A0840C00603D4112070BD022070BDEE
:405D400020464030418A008A491C41430804C10C5888884201D2122070BD20822079072802D12046FFF7FCF8022028702089002102F0CEFD002070BD64130020016A491CD8
:405D8000016204D1817E491C4906490E81767047C169491CC16104D1C17E491C4906490EC176704770B500250646002801D0002400E0114C002C1CD0882200212046FCF709
:405DC0002BFEA67000202646207140363070204600F018F8204601F01BFA084820820848B577807A1121084000D001202075012070BD002070BD0000D8130020B80B00008E
:405E000064130020002101628176C161C17620300177417770470079002805D0012803D0022801D001207047002070474030807F002800D00120704740300078002807D07E
:405E4000012805D0052803D00E2801D0012070470020704710B5807801F08AF9002800D0012010BD10B500F0CEFB0446AC20FDF76BFA010B02D02046FFF7ECFE10BD000079
:405E800070B5054604464035A87F002823D1FF206075A0788821144A484380186030417F8823491CC9B24177A078584380186030052901D300214177A0788821484380180D
:405EC0006030467F0677A1783046FEF70BFC002802D00120A87770BD0220A877A078314600F03AFD70BD0000B81300200020401C0006000EFBD0002070470000F0B515469D
:405F00008207920F85B0C004C00E02926A469080002D01D0002400E0514C002C29D0084600F026FC03906846808800280BD00298012845D0022843D003280CD03D20005DD6
:405F4000012872D086E00398FDF7FEF901462046FFF765F87EE00020029002A809F060FF002807D03D20005D012876D12046FFF705FF72E06846029E838832460021039850
:405F8000FDF758F90398FDF7DFF901462046FFF746F8284600F0B9FA01AA21463046FEF73FFE002806D0304609F0AAFF3D204C21085528E0F5773146204601F077FA4CE06D
:405FC000002000902789684609F01AFF002802D0002005B0F0BD6846009E8388321D00210398FDF727F90398FDF7AEF901462046FFF715F8284600F088FA25464035287E43
:4060000000280CD103E02046FFF7AAFA25E001AA21463046029BFEF737FE002806D0304609F064FF3D202873EDE710E00298FFF705F8390A00010143377071706846808845
:40604000B070000AF0703046FFF700FD05E02046FFF794FE284600F058FA0120B9E70000D813002010B5044A917B002901D0491E9173FFF797FE10BDB8130020F8B507461D
:4060800006464037B87F00283DD0B0788821009048431F4945186035287F0099FEF737FB012831D0287F401CC4B2052C00D300240020B877FF276F772F77A877024601468A
:4060C000009800F0C9FD717DFF2903D0304601F060F8777501F078FB00252F462246694630460097FEF764FF0099002902D03046FEF725FB641CE4B2052C00D300246D1C5E
:40610000EDB2052DEAD3F8BD0320B877F8BD0000B813002010B502460021084B03E0002901D0002000E018460479944204D0491C0906090EF3D0002010BD0000D813002001
:4061400000B50120FFF7E6FF00BD10B5044601F02FFE2189018080346168416061682831816002F00BFB10BDF7B50646087982B00C46092807D0A078F0770846FFF756FE57
:40618000012806D010E0304609F0CEFE022005B0F0BDA1788820284A484380186030007FFEF7A0FA012810D0A078FEF741FE01280BD037780121304601F0B3FA254620353F
:4061C000062F36D00B2F0FD107E06846027C21463046FEF717FF0D20D9E72046FEF72AF9012801D1002028772046FFF7A7FA054604AA21463046FEF77CFD01205F210855EB
:406200006946087C0090A07833463A46294600F04FFB69460A7CA0780323294600F0FAFEA0782946FDF714FF304609F07DFE0020ADE70120D7E70000B813002010B5024614
:406240004032937F0021002B03D1927E002A00D00121064AD279002A00D000210279092A00D10121807800F0FFFE10BD6814002070B50C460646FEF7DDF8002814D1012CE2
:406280000ED935464035A87800280DD1687802280AD03079092807D03046FFF7DBFD0446204600F00EFE70BD0124F9E770B50D4601280BD0082808D1A8241146B020FDF7BE
:4062C00049F829462046FDF745F870BD2020FAE710B501460820FDF73DF810BD10B50446FF20F130012C01D1FF20D530002200F006FF1020FDF728F80349A0430880014614
:406300001020FDF727F810BD6E02002010B504461020FDF719F80449A043088001461020FDF718F810BD00006E02002010B50446012802D0082C07D102E0FF20D53001E0EC
:40634000FF20F13000F0D0FE1020FCF7FDFF04492043088001461020FCF7FCFF10BD00006E02002010B504461020FCF7EDFF04492043088001461020FCF7ECFF10BD00008E
:406380006E020020F8B507460120B84085B214460E46012229467C2000F0B1FE32462946782000F0ACFE6078217800020143E078A5780002054360792679000206430C200A
:4063C00047430D2080013C182046FCF7C3FF241D29462046FCF7BEFF201D3146FCF7BAFFF8BD401880B270478B00034310B5D10191201943C000FCF7ADFF10BD70B50546C9
:406400000C46407829780002014341200001FCF7A1FFE878A978000201430A48FCF79AFF60782178000201438320C000FCF792FFE078A1780002014302480830FCF78AFF7E
:4064400070BD00001404000070B50D46044681B201208002FCF77EFF210C0448FCF77AFF81202946C000FCF775FF70BD0404000070B5054600242846FCF766FF641CA4B24E
:40648000102CF8D370BD10B50C460146B020FCF761FFFF2021462D30FCF75CFF10BD704710B50C460146B020FCF754FF204600F051FE0021FCF74EFF10BD70B50C46054669
:4064C00000F005F821462846FFF7DDFF70BD10B50C460146B020FCF73DFFFF2021462930FCF738FF10BD10B50146B020FCF732FFFF20002220211D3000F001FE10BD10B558
:406500000146C020FCF726FF10BD010210B54D310020FCF71FFF10BD10B504020029014608D0B020FCF716FF214675310020FCF711FF10BDB020FCF70DFF51200021400181
:40654000FCF708FF00210348FCF704FF21467631ECE70000240A000010B554210020FCF7F9FE10BD10B553210020FCF7F3FE10BD10B5034908884880FFF7C8FE10BD0000A3
:406580006E02002010B550210020FCF7E3FE10BD10B50E2400280CD0C420FCF7D5FE20430146C420FCF7D6FE51210020FCF7D2FE10BDC420FCF7C8FEA043F1E710B50248D1
:4065C0004088FFF7CFFE10BD6E02002010B5FCF7DBFF10BD10B552210020FCF7BBFE10BD884201D8081A03E00022D243101A401880B2704710B504461820FCF7A5FE8004D8
:40660000400F207010BD10B5B020FCF79DFEC0B210BDF8B50E4601461C461546B020FCF799FEFF20E930FCF78FFE0746FF200130FCF78AFE3080FF200930FCF785FE2880F7
:40664000FF200530FCF780FE208079070698490F0170F8BD10B5C820FCF776FE10BD10B50C46002812D05820FCF76EFE2070000A60705C20FCF768FEA070000AE070602017
:40668000FCF762FE2071000A607110BDFF20C130FCF75AFE2070000A6070FF20C530FCF753FEA070000AE070FF20C930E8E7000000B5024A00F004F800BD0000FF7F0000B8
:4066C00000B51346FFF78CFF984201D8022800D2002000BD10B50146B020FCF73BFE0248FCF732FE10BD0000080A000010B52420FCF72AFE10BD10B50146B020FCF72AFE43
:40670000FF202130FCF720FE10BD70B504466820FCF71AFE06466C20FCF716FE05467020FCF712FE2670310A6170A570290AE1702071000A607170BD10B50446012905D06A
:406740001820FCF701FEC00B207010BD4820FCF7FBFD8007C00FF7E710B50146B020FCF7F9FD0248FCF7F0FD10BD0000280A00000120C0027047000010B50146B020FCF7E9
:40678000E9FD0248FCF7E0FD10BD00000C0A000010B50C460146B020FCF7DCFD0321A0014902401810BD00008821074B414310B5C918FF2260314A770A7700228A77114634
:4067C00000F04AFA10BD0000B813002088225043074A10B58018FF21603041770177002181770448418EFF201D3000F07DFC10BDB81300206413002010B50C460146B0205C
:40680000FCF7A8FDFF202530FCF79EFD0222214600F002F810BD000010B50023884201D8081A03E00024E443201A4018044980B2884201D8824200D90123184610BD000001
:40684000FF7F000010B5C420FCF77EFD0006C00F10BD000010B50348FCF776FDC007C00F10BD00002C0A0000F8B503465078167800020643D0789578000205435079177943
:40688000000288240743002900D098241946B020FCF760FD31462046FCF75CFD201D2946FCF758FD204608303946FCF753FDF8BDFFB581B014460D4606460A9FFFF768FF96
:4068C0003B460021049AFCF725FD02484019845505B0F0BD7202002070B506460D4611242520A40108214001FCF734FD2B46324600212046FCF70EFD70BD70B52124054610
:406900006401FFF72FFE10232A4600212046FCF701FD70BD10B5044640782178000201438F20C000FCF716FDE078A178000201430148FCF70FFD10BD7C04000010B50C4609
:406940000146B020FCF706FD802021460143FF202930FCF7FFFC10BD70B50D460146B020FCF7F8FCFF241D342046FCF7EDFC01090901FF202943013001432046FCF7EAFC0D
:4069800070BDF8B500242646012807D0032802D0052808D105E002240A2604E004240C2601E004240D26492701463F013846FCF7D1FC25204001FCF7C7FCC5B228462042FD
:4069C000F7D0252031464001FCF7C4FC00213846FCF7C0FC2846F8BD70B50D46044601461646B020FCF7B6FC512029464001FCF7B1FC31460648FCF7ADFC032189030820DB
:406A0000FFF794FC210275310020FCF7A3FC70BD240A000070B50D4604460146B020FCF799FCFF2029461930FCF794FC21024B310020FCF78FFC70BD70B5491E8CB20546C0
:406A40000146B020FCF786FCFF2021461930FCF781FC29024C310020FCF77CFC70BD0000054910B5884200D908460146FF206130FCF770FC10BD0000FF0F0000054910B5A3
:406A8000884200D908460146FF206530FCF762FC10BD0000FF0F000070B588251446002900D098250146B020FCF754FC2846FCF74BFC2070000A6070281DFCF745FCA070E7
:406AC000000AE07028460830FCF73EFC2071000A607170BD10B51446024611200B4680010021FCF703FC012C01D1FFF735FD10BD10B504460920C001FCF726FC2070000AB7
:406B000060700448FCF720FCA070000AE070FFF723FD10BD840400000121814010B589B200227C2000F0EBFA10BD000070B5FF210120FFF7D3FBFF210820FFF7CFFB302090
:406B4000FFF7E4FB80210020FCF704FC002211460320FCF72DFC374DFF20A98DD530FCF7F9FB0024FF26F1362146B020FCF7F2FB298F3046FCF7EEFB2046FFF727FE641C7D
:406B80002406240EF0D0FF20A98FF930FCF7E2FB28481030044600F079F9204600F0BEF900F04CF8234CB82040346188FCF7D2FBA188BC20FCF7CEFBE188C420FCF7CAFBA2
:406BC000FF20698EE130FCF7C5FBA12000210001FCF7C0FB3920FFF7C5FBFFF7C3FC93200721C000FCF7B6FBFFF7B6FCE020FFF73FFCE820FFF73CFCF020FFF739FC0020BD
:406C0000FDF7EEFF618A0C48FCF7A4FB0A482821001DFCF79FFBFF210131AC20FCF79AFB832000218000FCF795FB5B210020FCF791FB70BD64130020140A000010B500210D
:406C40007C20FCF787FB00217820FCF783FB74210020FCF77FFB10BD70B50D4601461446B020FCF777FBFF261D363046FCF76CFB01090901FF20294301308143002C01D1C2
:406C8000102041403046FCF765FB70BDF3B589B0FF2001900D208001009048780D7800020543C8788E780002064348790979000201437C200791FCF747FB06907820FCF72B
:406CC00043FB059074210020FCF744FB18480024049026E00120A04087B20098FCF734FB03900098FCF730FB02900098FCF72CFB039A29465140029A72401143079A4240D9
:406D000011430BD10698074208D00598E040C1070998C90F814201D1019405E0641C0498E4B20078A042D5D801980BB0F0BD0000A413002070B5FF257C20FCF705FB08499D
:406D4000002401230A7805E01946A140014205D0641CE4B2A242F7D8284670BD2546FBE7A413002010B504461820FCF7EDFA0721C90288436107890C01431820FCF7EAFA55
:406D800010BD10B50446E020FFF772FB20782246401CC3B20021E020FCF768FA10BD000010B5044641790079042817D040000843A17B032901D8C9000843617B4A010243FF
:406DC000A079010207201143C00201431820FCF7C1FA21881C20FCF7BDFA10BD08460149E5E700000204000010B5012000F02EF90120FFF78BFA41210020FCF7ABFA10BDCA
:406E000010B5002000F022F90120FFF7ABFA40210020FCF79FFA10BD10B50C460146B020FCF798FAFF2021460D30FCF793FA10BD70B50C4601461E461546B020FCF78AFA45
:406E4000E92021468000FCF785FA75202946C000FCF780FAEB2031468000FCF77BFA6C433B20A1B20001FCF775FA70BD70B50C4601461546B020FCF76DFA21468420FCF7E7
:406E800069FA29468020FCF765FA70BD10B504464078217800020143FF20C130FCF75AFAE078A17800020143FF20C530FCF752FA6079217900020143FF20C930FCF74AFAD2
:406EC00010BD70B5A124054624012046FCF73CFA012D07D041084900814202D02046FCF739FA70BD014601221143F5E710B5044640782178000201436820FCF72BFAE078BF
:406F0000A178000201436C20FCF724FA60792179000201437020FCF71DFA10BD10B5044640782178000201435820FCF713FAE078A178000201435C20FCF70CFA6079217978
:406F4000000201436020FCF705FA10BD10B50446E820FFF78DFA20782246401CC3B20021E820FCF783F910BD10B50C460146B020FCF7F0F921460248FCF7ECF910BD000062
:406F80001C0A000010B50C460146B020FCF7E2F9FF2021460530FCF7DDF910BD70B5054688000521FBF78EFC84B22946B020FCF7D1F921460448FCF7CDF929027231002038
:406FC000FCF7C8F970BD0000040A000010B504460146B020FCF7BEF9210273310020FCF7B9F910BD10B504460146B020FCF7B2F9210270310020FCF7ADF910BD10B504465C
:407000000146B020FCF7A6F9210271310020FCF7A1F910BDF8B505461E4614460F46084600F098F800902802A1000843304304462946B020FCF78EF921460098FCF78AF9FE
:407040000148C0194655F8BD7702002010B50446B820FCF779F98005800DA102014389B2B820FCF777F910BD70B50D460146B020FCF770F9FF241D342046FCF765F9402106
:407080008843A90101432046FCF764F970BD70B5A124054624012046FCF756F90222002D01D0104300E0904301462046FCF752F970BD70B50D460146B020FCF74BF9FF200D
:4070C00029460930FCF746F9A12424012046FCF73BF90222002D01D0104300E0904301462046FCF737F970BD70B50C460546FCF72BF9204301462846FCF72CF970BDF8B537
:4071000016460D460746FCF71FF9014600202C0003D104E06408401C80B2E207FAD08640A9430E43B1B23846FCF714F9F8BD0000024A1018405C8007800F70477702002041
:4071400010B50146B020FCF705F9FF202D30FCF7FBF810BD8000FF30413070470246FF20052902D201484018805C70477202002010B50146B020FCF7EDF8FF202930FCF7EC
:40718000E3F810BD0A4600B501461046FFF7E6FF00BD38B50C46054600216846009108F05FFE002804D1009928464C7000F09EFB38BD10B5044680780021FFF72DFE012105
:4071C0002046FFF755F810BD436E002B0CD00B60014660318B781370826E4266CA788A700021816608467047FF20704710B50346446E6033002C04D0846E002C04D0FF207D
:4072000010BD41669A7001E08166DA70002010BD0021416681667047406E002801D000207047FF20704770B50446C0790D46810610D5DF210840E07100F0BAFD0570218951
